{
  "_format": "hh-sol-artifact-1",
  "contractName": "TokenDistributor",
  "sourceName": "contracts/TokenDistributor.sol",
  "abi": [
    {
      "inputs": [
        {
          "internalType": "bytes32[]",
          "name": "addrs",
          "type": "bytes32[]"
        },
        {
          "internalType": "bytes32[]",
          "name": "allocations",
          "type": "bytes32[]"
        }
      ],
      "stateMutability": "nonpayable",
      "type": "constructor"
    },
    {
      "anonymous": false,
      "inputs": [
        {
          "indexed": true,
          "internalType": "address",
          "name": "previousOwner",
          "type": "address"
        },
        {
          "indexed": true,
          "internalType": "address",
          "name": "newOwner",
          "type": "address"
        }
      ],
      "name": "OwnershipTransferred",
      "type": "event"
    },
    {
      "inputs": [
        {
          "internalType": "uint256",
          "name": "",
          "type": "uint256"
        }
      ],
      "name": "distributors",
      "outputs": [
        {
          "internalType": "address",
          "name": "addr",
          "type": "address"
        },
        {
          "internalType": "uint8",
          "name": "allocation",
          "type": "uint8"
        }
      ],
      "stateMutability": "view",
      "type": "function"
    },
    {
      "inputs": [],
      "name": "numDistributors",
      "outputs": [
        {
          "internalType": "uint256",
          "name": "",
          "type": "uint256"
        }
      ],
      "stateMutability": "view",
      "type": "function"
    },
    {
      "inputs": [],
      "name": "owner",
      "outputs": [
        {
          "internalType": "address",
          "name": "",
          "type": "address"
        }
      ],
      "stateMutability": "view",
      "type": "function"
    },
    {
      "inputs": [],
      "name": "renounceOwnership",
      "outputs": [],
      "stateMutability": "nonpayable",
      "type": "function"
    },
    {
      "inputs": [
        {
          "internalType": "bytes32[]",
          "name": "addrs",
          "type": "bytes32[]"
        },
        {
          "internalType": "bytes32[]",
          "name": "allocations",
          "type": "bytes32[]"
        }
      ],
      "name": "setDistributors",
      "outputs": [],
      "stateMutability": "nonpayable",
      "type": "function"
    },
    {
      "inputs": [
        {
          "internalType": "address",
          "name": "newOwner",
          "type": "address"
        }
      ],
      "name": "transferOwnership",
      "outputs": [],
      "stateMutability": "nonpayable",
      "type": "function"
    },
    {
      "stateMutability": "payable",
      "type": "receive"
    }
  ],
  "bytecode": "0x608060405260006001553480156200001657600080fd5b5060405162000abd38038062000abd833981016040819052620000399162000339565b620000443362000058565b620000508282620000a8565b5050620003e1565b600080546001600160a01b038381166001600160a01b0319831681178455604051919092169283917f8be0079c531659141344cd1fd0a4f28419497f9722a3daafe3b4186f6b6457e09190a35050565b620000b262000221565b8051825114620000fc5760405162461bcd60e51b815260206004820152601060248201526f4e6f74206d6174636820636f756e747360801b60448201526064015b60405180910390fd5b60005b6001548110156200013b57600081815260026020526040902080546001600160a81b0319169055806200013281620003a3565b915050620000ff565b50600060018190555b82518110156200021c57600180549060006200016083620003a3565b91905055506040518060400160405280848381518110620001855762000185620003cb565b602002602001015160001c6001600160a01b03168152602001838381518110620001b357620001b3620003cb565b60209081029190910181015160ff90811690925260015460009081526002825260409020835181549490920151909216600160a01b026001600160a81b03199093166001600160a01b0390911617919091179055806200021381620003a3565b91505062000144565b505050565b6000546001600160a01b031633146200027d5760405162461bcd60e51b815260206004820181905260248201527f4f776e61626c653a2063616c6c6572206973206e6f7420746865206f776e65726044820152606401620000f3565b565b634e487b7160e01b600052604160045260246000fd5b600082601f830112620002a757600080fd5b815160206001600160401b0380831115620002c657620002c66200027f565b8260051b604051601f19603f83011681018181108482111715620002ee57620002ee6200027f565b6040529384528581018301938381019250878511156200030d57600080fd5b83870191505b848210156200032e5781518352918301919083019062000313565b979650505050505050565b600080604083850312156200034d57600080fd5b82516001600160401b03808211156200036557600080fd5b620003738683870162000295565b935060208501519150808211156200038a57600080fd5b50620003998582860162000295565b9150509250929050565b600060018201620003c457634e487b7160e01b600052601160045260246000fd5b5060010190565b634e487b7160e01b600052603260045260246000fd5b6106cc80620003f16000396000f3fe6080604052600436106100595760003560e01c806350b492ba1461010e5780636465cfb314610176578063715018a6146101965780638da5cb5b146101ab578063f2fde38b146101d3578063fde1baca146101f357600080fd5b366101095760015b6001548111610107576000818152600260205260408120546001600160a01b0381169060649061009b90600160a01b900460ff16346104ca565b6100a591906104e7565b604051600081818185875af1925050503d80600081146100e1576040519150601f19603f3d011682016040523d82523d6000602084013e6100e6565b606091505b50509050806100f457600080fd5b50806100ff81610509565b915050610061565b005b600080fd5b34801561011a57600080fd5b50610150610129366004610522565b6002602052600090815260409020546001600160a01b03811690600160a01b900460ff1682565b604080516001600160a01b03909316835260ff9091166020830152015b60405180910390f35b34801561018257600080fd5b506101076101913660046105ec565b610217565b3480156101a257600080fd5b5061010761037d565b3480156101b757600080fd5b506000546040516001600160a01b03909116815260200161016d565b3480156101df57600080fd5b506101076101ee366004610650565b610391565b3480156101ff57600080fd5b5061020960015481565b60405190815260200161016d565b61021f61040a565b80518251146102685760405162461bcd60e51b815260206004820152601060248201526f4e6f74206d6174636820636f756e747360801b60448201526064015b60405180910390fd5b60005b6001548110156102a357600081815260026020526040902080546001600160a81b03191690558061029b81610509565b91505061026b565b50600060018190555b825181101561037857600180549060006102c583610509565b919050555060405180604001604052808483815181106102e7576102e7610680565b602002602001015160001c6001600160a01b0316815260200183838151811061031257610312610680565b60209081029190910181015160ff90811690925260015460009081526002825260409020835181549490920151909216600160a01b026001600160a81b03199093166001600160a01b03909116179190911790558061037081610509565b9150506102ac565b505050565b61038561040a565b61038f6000610464565b565b61039961040a565b6001600160a01b0381166103fe5760405162461bcd60e51b815260206004820152602660248201527f4f776e61626c653a206e6577206f776e657220697320746865207a65726f206160448201526564647265737360d01b606482015260840161025f565b61040781610464565b50565b6000546001600160a01b0316331461038f5760405162461bcd60e51b815260206004820181905260248201527f4f776e61626c653a2063616c6c6572206973206e6f7420746865206f776e6572604482015260640161025f565b600080546001600160a01b038381166001600160a01b0319831681178455604051919092169283917f8be0079c531659141344cd1fd0a4f28419497f9722a3daafe3b4186f6b6457e09190a35050565b634e487b7160e01b600052601160045260246000fd5b80820281158282048414176104e1576104e16104b4565b92915050565b60008261050457634e487b7160e01b600052601260045260246000fd5b500490565b60006001820161051b5761051b6104b4565b5060010190565b60006020828403121561053457600080fd5b5035919050565b634e487b7160e01b600052604160045260246000fd5b600082601f83011261056257600080fd5b8135602067ffffffffffffffff8083111561057f5761057f61053b565b8260051b604051601f19603f830116810181811084821117156105a4576105a461053b565b6040529384528581018301938381019250878511156105c257600080fd5b83870191505b848210156105e1578135835291830191908301906105c8565b979650505050505050565b600080604083850312156105ff57600080fd5b823567ffffffffffffffff8082111561061757600080fd5b61062386838701610551565b9350602085013591508082111561063957600080fd5b5061064685828601610551565b9150509250929050565b60006020828403121561066257600080fd5b81356001600160a01b038116811461067957600080fd5b9392505050565b634e487b7160e01b600052603260045260246000fdfea2646970667358221220ba9e05944c832398797eefda8e5009109b3c17570ff4a3e89be194cd1ba60fa964736f6c63430008110033",
  "linkReferences": {},
  "deployedLinkReferences": {}
}